:020000040000FA
:0400000076EF04F0A3
:10060000000001500210D8B408EF03F00AEF03F025
:1006100014EF03F0000E156E000E146E000E136E34
:10062000010E126E000E816E8150D8A41AEF03F0F5
:100630001CEF03F02DEF03F0000E136E010E126E8F
:1006400014501510D8B427EF03F02AEF03F0010E71
:100650002BEF03F0000E146E156A8128D8A433EF37
:1006600003F035EF03F039EF03F0000E136E000EC8
:10067000126E14501510D8B440EF03F042EF03F09F
:1006800061EF03F012501310D8A449EF03F04BEFC1
:1006900003F052EF03F0D8908134066E076A0736F4
:1006A0005DEF03F0010E81CF03F0046AD8900336AA
:1006B00004360310066E0450076E06C081FF81EFFA
:1006C00003F012501310D8A468EF03F06AEF03F0A0
:1006D00073EF03F081CF03F0D89003320350086E1C
:1006E000096A7FEF03F0800E81CF03F0D8900332C8
:1006F00003C004F0056A0410086E0550096E08C0B6
:1007000081FF1200A4EC04F0000E0F6E010E0E6EBD
:100710000E0E0C6EC30E0B6E500E0A6E010E45ECE3
:1007200004F00D6E0F0E0D18D8B499EF03F09BEF87
:1007300003F0AEEF03F00D500C18D8B4A2EF03F0A5
:10074000A4EF03F0AEEF03F00DC00CF0000E0F6E3F
:10075000010E0E6EC30E0B6E500E0A6E0A06D8A066
:100760000B060A2806E10B28D8A4B9EF03F0BBEF6B
:1007700003F08EEF03F0500E0A26C30E0B22E5EFB6
:1007800003F00EC001F00FC002F001EC03F0F8EF2F
:1007900003F00EC001F00FC002F000EC04F0F8EF1F
:1007A00003F00EC001F00FC002F097EC04F0F8EF78
:1007B00003F00EC001F00FC002F08AEC04F0F8EF75
:1007C00003F0000E816EF8EF03F00C50070AD8B466
:1007D000D9EF03F00C0AD8B4D1EF03F0060AD8B46D
:1007E000C9EF03F0030AD8B4C1EF03F0E1EF03F05F
:1007F000000E0F6E000E0E6E8EEF03F000EF00F095
:1008000001500210D8B407EF04F009EF04F00FEF25
:1008100004F0000E116E010E106E000E816E8150FC
:10082000D8A415EF04F017EF04F01BEF04F0000E4E
:10083000116E010E106E8128D8A421EF04F023EF71
:1008400004F027EF04F0000E116E000E106E105031
:100850001110D8A42EEF04F030EF04F037EF04F0BD
:10086000D8908134056E066A063642EF04F0010E18
:1008700081CF03F0046AD890033604360310056E66
:100880000450066E05C081FF1200016E0150D8A40D
:100890004CEF04F04EEF04F052EF04F082500F0BD7
:1008A00075EF04F082500F0B0F0AD8B45AEF04F022
:1008B0005CEF04F068EF04F01650D8B462EF04F077
:1008C00064EF04F068EF04F0000E166E4EEF04F0D3
:1008D00082500F0B0F0AD8A470EF04F072EF04F0EF
:1008E00074EF04F0010E166E0F0E12005E0EF66E1F
:1008F000090EF76E000EF86E0900F5CF16F0156AB6
:10090000146A136A126A116A106A000EF86E000106
:1009100082EF03F001500210D8B491EF04F093EF8E
:1009200004F095EF04F00F0E816E811E120001504D
:100930000210D8B49EEF04F0A0EF04F0A2EF04F090
:10094000AA0E816E811E1200000E936E000E816E43
:0F095000ABEC04F0120094500F09946E120001EA
:020000040020DA
:08000000FFFFFFFFFFFFFFFF00
:020000040030CA
:0E000000FF071F1FFF8285FF0FC00FE00F409C
:00000001FF
