:020000040000FA
:0400000037EF06F0E0
:10060000000055EC06F0000E176E000E186E000E7E
:10061000196E000E1A6E000E226E000E236E000E72
:10062000246E000E256E000E5FEC06F00F6E0F506C
:100630001B6E1C6A1D6A1E6A22C001F023C002F0F4
:1006400024C003F025C004F00A0E056E000E066EED
:10065000000E076E000E086EEAEC05F01B50012438
:10066000226E1C500220236E1D500320246E1E504B
:100670000420256E010E5FEC06F00F6E0F501B6E0E
:100680001C6A1D6A1E6A22C001F023C002F024C049
:1006900003F025C004F00A0E056E000E066E000E73
:1006A000076E000E086EEAEC05F01B500124226E66
:1006B0001C500220236E1D500320246E1E50042067
:1006C000256E020E5FEC06F00F6E0F501B6E1C6A5B
:1006D0001D6A1E6A22C001F023C002F024C003F08C
:1006E00025C004F00A0E056E000E066E000E076EA1
:1006F000000E086EEAEC05F01B500124226E1C501F
:100700000220236E1D500320246E1E500420256EEF
:10071000030E5FEC06F00F6E0F501B6E1C6A1D6A15
:100720001E6A22C001F023C002F024C003F025C0DD
:1007300004F00A0E056E000E066E000E076E000E27
:10074000086EEAEC05F01B500124226E1C500220BA
:10075000236E1D500320246E1E500420256E22C0DF
:1007600020F023C021F082B0B8EF03F0BAEF03F01D
:10077000DDEF03F017C00FF018C010F019C011F032
:100780001AC012F0172A000E182219221A2212BEBD
:10079000D5EF03F012501110101009E1650E0F5C37
:1007A000D8A0D5EF03F0D7EF03F006EF04F0000E6A
:1007B000216E000E206E06EF04F01ABEEDEF03F07E
:1007C0001A501910181007E1640E175CD8B0EBEF3F
:1007D00003F0EDEF03F0FEEF03F01ABEFAEF03F0C3
:1007E0001A501910181008E11704D8A0FAEF03F0F6
:1007F000FCEF03F0FEEF03F0204A212A000E176EF3
:10080000000E186E000E196E000E1A6E82B20BEFFB
:1008100004F00DEF04F08DEF04F020C026F021C0AD
:1008200027F026C009F027C00AF0000E0C6E0A0E51
:100830000B6E4FEC05F009501F6E1FC001F0030E48
:100840001FEC06F026C001F027C002F0000E046E77
:100850000A0E036EEDEC04F001C026F002C027F092
:1008600026C009F027C00AF0000E0C6E0A0E0B6EAF
:100870004FEC05F009501F6E1FC001F0020E1FEC77
:1008800006F026C001F027C002F0000E046E0A0E2A
:10089000036EEDEC04F001C026F002C027F026C084
:1008A00009F027C00AF0000E0C6E0A0E0B6E4FEC1A
:1008B00005F009501F6E1FC001F0010E1FEC06F07D
:1008C00026C001F027C002F0000E046E0A0E036E6F
:1008D000EDEC04F001C026F002C027F026C009F0BC
:1008E00027C00AF0000E0C6E0A0E0B6E4FEC05F0DE
:1008F00009501F6E1FC001F0000E1FEC06F026C04D
:1009000001F027C002F0000E046E0A0E036EEDEC3B
:1009100004F001C026F002C027F020C001F021C081
:1009200002F0030E046EE80E036EEDEC04F00150CD
:10093000280FD96EDA6ADF50136E000E046E640E53
:10094000036E20C001F021C002F0EDEC04F001C004
:1009500009F002C00AF0000E0C6E0A0E0B6E4FEC8E
:1009600005F00950280FD96EDA6ADF50146E000EB8
:10097000046E0A0E036E20C001F021C002F0EDECFF
:1009800004F001C009F002C00AF0000E0C6E0A0E5D
:100990000B6E4FEC05F00950280FD96EDA6ADF5064
:1009A000156E20C009F021C00AF0000E0C6E0A0E70
:1009B0000B6E4FEC05F00950280FD96EDA6ADF5044
:1009C000166E130E016E000E036E070E026EA7EC7C
:1009D00005F0B3EF03F000EF00F0000E066E04BE6A
:1009E000F6EF04F0F4EF04F0FCEF04F0036C041EE7
:1009F000D8B0042A010E066E02BE03EF05F001EF27
:100A000005F009EF05F0016C021ED8B0022A010EB4
:100A1000061A000E086E000E076E03500410D8B4BC
:100A200014EF05F016EF05F03EEF05F0010E056E30
:100A30001EEF05F0D89003360436052A04AE23EFE6
:100A400005F025EF05F01AEF05F0D89007360836C7
:100A50000350015C04500258D8A031EF05F033EF89
:100A600005F038EF05F00350015E0450025A07808C
:100A7000D89004320332052E25EF05F00650D8B485
:100A800044EF05F046EF05F04AEF05F0076C081E4D
:100A9000D8B0082A07C001F008C002F01200000E0A
:100AA0000E6E0ABE58EF05F056EF05F05EEF05F04A
:100AB000096C0A1ED8B00A2A010E0E6E0CBE65EF34
:100AC00005F063EF05F069EF05F00B6C0C1ED8B074
:100AD0000C2A0B500C10D8B470EF05F072EF05F033
:100AE00096EF05F0010E0D6E7AEF05F0D8900B36FB
:100AF0000C360D2A0CAE7FEF05F081EF05F076EF96
:100B000005F00B50095C0C500A58D8A08AEF05F08C
:100B10008CEF05F090EF05F00B50095E0C500A5A6F
:100B2000D8900C320B320D2E81EF05F00E50D8B458
:100B30009CEF05F09EEF05F0A2EF05F0096C0A1E90
:100B4000D8B00A2A09C009F00AC00AF01200000E43
:100B50000B6E000E0A6E01500A24D96EDA6ADF505D
:100B6000836E0AC004F0010E056E042ABAEF05F088
:100B7000D8900536042EB8EF05F08050F00B051024
:100B8000806EE80E066E030E076E000E086E000EF5
:100B9000096E0606000E075A085A095A0650071031
:100BA00008100910D8A4D7EF05F0D9EF05F0C9EF68
:100BB00005F00A4A0B2A0BBEE7EF05F00B5009E1DE
:100BC000040E0A5CD8A0E7EF05F0E9EF05F0ABEF03
:100BD00005F01200000E096E000E0A6E000E0B6E7C
:100BE000000E0C6E01A0F7EF05F0F9EF05F001EF34
:100BF00006F00550092606500A2207500B2208501D
:100C00000C22D8900536063607360836D8900432BE
:100C10000332023201320150021003100410D8A432
:100C200014EF06F016EF06F0F2EF05F009C001F040
:100C30000AC002F00BC003F00CC004F01200026EF8
:100C400002C0A9FF01C0A8FFA69EA69CA684A198E9
:100C5000F29E550EA76EAA0EA76EA682F28EA1A8CE
:100C600034EF06F036EF06F02FEF06F01200D00E4C
:100C7000F66E0C0EF76E000EF86E00EE28F010EE19
:100C80000AF00900F5CFEEFFE550E150FAE100016E
:100C900001EF03F00F0EC16E000E956E9250F00B37
:100CA000926E8050F00B806E1200000E936E000E5C
:100CB000816E94500F09946E4AEC06F01200016E9A
:100CC00001C0A9FFA69EA69CA694A680A8501200CB
:0A0CD000E721CB6B2D6EEE23EF6FD2
:020000040020DA
:08000000FFFFFFFFFFFFFFFF00
:020000040030CA
:0E000000FF071F1FFF8285FF0FC00FE00F409C
:00000001FF
