:020000040000FA
:0400000007EF00F016
:0A00080024825EED05F0C5EF05F05F
:100600000000FEEC05F0E0EC05F0000E0B6E000EB5
:100610000A6E000E096E000E086E000E126E000EBD
:10062000116E010E25EC05F0106E070E1018D8A4FF
:100630001CEF03F01EEF03F02FEF03F0000E0B6E24
:10064000000E0A6E08500910D8B429EF03F02CEF01
:1006500003F0010E2DEF03F0000E086E096A0B0E79
:100660001018D8A436EF03F038EF03F045EF03F08D
:100670000A500B10D8B43FEF03F042EF03F0010E25
:1006800043EF03F0000E0A6E0B6A08500910D8A45D
:100690004CEF03F04EEF03F0CAEF03F03C0E2018CE
:1006A0002110D8A456EF03F058EF03F05EEF03F0EB
:1006B000000E216E000E206E114A122A180E11181B
:1006C0001210D8A466EF03F068EF03F06CEF03F0AC
:1006D000000E126E000E116E11C001F012C002F079
:1006E000000E046E0A0E036EEBEC04F00150130FC3
:1006F000D96EDA6ADF500C6E22A081EF03F083EF2F
:1007000003F096EF03F011C001F012C002F0000EEA
:10071000046E0A0E036E93EC05F00150130FD96EB0
:10072000DA6ADF5010090D6EA6EF03F011C001F078
:1007300012C002F0000E046E0A0E036E93EC05F078
:100740000150130FD96EDA6ADF500D6E20C001F030
:1007500021C002F0000E046E0A0E036EEBEC04F0F2
:100760000150130FD96EDA6ADF500E6E20C001F00F
:1007700021C002F0000E046E0A0E036E93EC05F029
:100780000150130FD96EDA6ADF500F6E0C0E016E36
:10079000AFEC04F008040910D8A4D1EF03F0D3EFB4
:1007A00003F011EF03F00A500B10D8A4DAEF03F0B6
:1007B000DCEF03F03EEF04F022A0E1EF03F0E3EF03
:1007C00003F0E9EF03F0000E0E6E000E0F6E09EF5E
:1007D00004F020C001F021C002F0000E046E0A0EE9
:1007E000036EEBEC04F00150130FD96EDA6ADF50A0
:1007F0000E6E20C001F021C002F0000E046E0A0E41
:10080000036E93EC05F00150130FD96EDA6ADF50D6
:100810000F6E0E0E1018D8A410EF04F012EF04F0B3
:1008200022EF04F0204A212A3C0E20182110D8A4DF
:100830001CEF04F01EEF04F022EF04F0000E216E16
:10084000000E206E0D0E1018D8A429EF04F02BEF27
:1008500004F0A7EF04F02006D8A02106202806E126
:100860002128D8A436EF04F038EF04F0A7EF04F005
:10087000000E216E3B0E206EA7EF04F00A040B1051
:10088000D8A445EF04F047EF04F0A7EF04F022A04E
:100890004CEF04F04EEF04F054EF04F0000E0C6E39
:1008A000000E0D6E74EF04F011C001F012C002F0E2
:1008B000000E046E0A0E036EEBEC04F00150130FF1
:1008C000D96EDA6ADF500C6E11C001F012C002F06E
:1008D000000E046E0A0E036E93EC05F00150130F28
:1008E000D96EDA6ADF500D6E0E0E1018D8A47BEFA9
:1008F00004F07DEF04F08DEF04F0114A122A180E77
:1009000011181210D8A487EF04F089EF04F08DEFCE
:1009100004F0000E126E000E116E0D0E1018D8A409
:1009200094EF04F096EF04F0A7EF04F01106D8A0BE
:100930001206112806E11228D8A4A1EF04F0A3EFB3
:1009400004F0A7EF04F0000E126E170E116E0C0EDD
:10095000016EAFEC04F011EF03F007EF00F0000EB2
:10096000076E000E066E01500624D96EDA6ADF505B
:10097000836E06C002F0010E036E022AC2EF04F07D
:10098000D8900336022EC0EF04F08050F00B031015
:10099000806E030E056EE80E046E0406D8A00506F0
:1009A000042806E10528D8A4D8EF04F0DAEF04F013
:1009B000CDEF04F0064A072A07BEE8EF04F007501F
:1009C00009E1040E065CD8A0E8EF04F0EAEF04F0B9
:1009D000B3EF04F01200000E066E000E056E035019
:1009E0000410D8B4F6EF04F0F8EF04F020EF05F0AF
:1009F000010E076E00EF05F0D89003360436072A83
:100A000004AE05EF05F007EF05F0FCEF04F0D89019
:100A1000053606360350015C04500258D8A013EF87
:100A200005F015EF05F01AEF05F00350015E0450D4
:100A3000025A0580D89004320332072E07EF05F0E2
:100A400005C001F006C002F01200016E0150D8A4EA
:100A50002CEF05F02EEF05F032EF05F082500F0B72
:100A60005DEF05F00104D8A438EF05F03AEF05F08A
:100A70005DEF05F082500F0B0F0AD8B442EF05F07E
:100A800044EF05F050EF05F01D50D8B44AEF05F0E3
:100A90004CEF05F050EF05F0000E1D6E2EEF05F047
:100AA00082500F0B0F0AD8A458EF05F05AEF05F04B
:100AB0005CEF05F0010E1D6E0F0E12000600F2A491
:100AC00064EF05F066EF05F091EF05F0080ED6240F
:100AD000D66E000ED720D76E1E4A1F2A210E1E1872
:100AE00007E14E0E1F18D8A478EF05F07AEF05F055
:100AF00090EF05F0224A232A3C0E22182310D8A496
:100B000084EF05F086EF05F08CEF05F0204A212AEE
:100B1000000E236E000E226E000E1F6E000E1E6E63
:100B2000F2942492110003500410D8B49AEF05F007
:100B30009CEF05F0C0EF05F0010E056EA4EF05F087
:100B4000D89003360436052A04AEA9EF05F0ABEFC2
:100B500005F0A0EF05F00350015C04500258D8A046
:100B6000B4EF05F0B6EF05F0BAEF05F00350015E03
:100B70000450025AD89004320332052EABEF05F030
:100B800001C001F002C002F01200F00EF66E0B0E72
:100B9000F76E000EF86E00EE13F010EE0BF0090089
:100BA000F5CFEEFFE550E150FAE1236A226A216AAF
:100BB000206A1F6A1E6A24902492000101EF03F04C
:100BC000F28EF28CF28AF294000ED76E060ED66E7A
:100BD000D58ED58CD59AD58612000F0EC16E000E1B
:100BE000956E9250F00B926E8050F00B806E12005A
:0B0BF000E721CB6B2D6EEE23EF6F01B1
:0A0BFC000F0EC16EEDEC05F01200C3
:020000040020DA
:08000000FFFFFFFFFFFFFFFF00
:020000040030CA
:0E000000FF071F1FFF8285FF0FC00FE00F409C
:00000001FF
