:020000040000FA
:0400000007EF00F016
:0A000800148296ED03F07FEF03F081
:100600000000000E0D6E000E0C6EB0EC03F013BE79
:1006100015EF03F0135007E1050E125CD8B013EF8D
:1006200003F015EF03F03EEF03F00C4A0D2AC90E5C
:100630000C180D10D8A41FEF03F021EF03F038EFD2
:1006400003F0000E0D6E000E0C6E124A132A0EC03F
:1006500008F00FC009F010C00AF011C00BF081A221
:1006600034EF03F037EF03F0818238EF03F081922B
:10067000080E016E43EC03F007EF03F0030007EFF1
:1006800003F007EF00F0000E076E000E066E01503B
:100690000624D96EDA6ADF50836E06C002F0010EBE
:1006A000036E022A56EF03F0D8900336022E54EF61
:1006B00003F08050F00B0310806E030E056EE80E01
:1006C000046E0406D8A00506042806E10528D8A46F
:1006D0006CEF03F06EEF03F061EF03F0064A072AB8
:1006E00007BE7CEF03F0075009E1040E065CD8A0BA
:1006F0007CEF03F07EEF03F047EF03F012007C0E77
:10070000F66E070EF76E000EF86E00EE0EF010EEAD
:1007100004F00900F5CFEEFFE550E150FAE1136A6D
:10072000126A14901492000101EF03F00600F2A285
:100730009CEF03F09EEF03F0A3EF03F0000E136EA7
:10074000000E126EF292149211000F0EC16E000E86
:10075000956E9250F00B926E8050F00B806E1200EE
:1007600093928192A5EC03F0B7EC03F01200938012
:10077000F28EF28CF288F292F18C1200E721CB6BB0
:020000040020DA
:08000000FFFFFFFFFFFFFFFF00
:020000040030CA
:0E000000FF071F1FFF8285FF0FC00FE00F409C
:00000001FF
