:020000040000FA
:0400000007EF00F016
:0A00080010828AED03F0AFEF03F061
:100600000000CEEC03F0000E056E640E046E000ECA
:100610000A6E000E096E000E076E0A0E066E010EBF
:1006200059EC03F0086E0950065C0A500758D8A030
:100630001CEF03F01EEF03F021EF03F0818022EFA7
:1006400003F08190094A0A2A010E0424026E000E6A
:100650000520036E0950021807E10A500318D8A4B8
:1006600034EF03F036EF03F03AEF03F0000E0A6EBA
:10067000000E096E0E0E0818D8A441EF03F043EFE8
:1006800003F04BEF03F0000E076E640E066E000ED3
:100690000E6E000E0D6E040E0D180E10D8A453EF42
:1006A00003F055EF03F00FEF03F00BEF03F007EF4C
:1006B00000F0016E0150D8A460EF03F062EF03F088
:1006C00066EF03F082500F0B89EF03F082500F0B9F
:1006D0000F0AD8B46EEF03F070EF03F07CEF03F075
:1006E0000F50D8B476EF03F078EF03F07CEF03F00F
:1006F000000E0F6E62EF03F082500F0B0F0AD8A4AA
:1007000084EF03F086EF03F088EF03F0010E0F6E25
:100710000F0E12000600F2A490EF03F092EF03F028
:10072000ADEF03F0080ED624D66E000ED720D76E9C
:100730000B4A0C2A200E0B1807E14E0E0C18D8A4F9
:10074000A4EF03F0A6EF03F0ACEF03F0000E0C6E85
:10075000000E0B6E0D4A0E2AF29410921100B60E86
:10076000F66E070EF76E000EF86E0900F5CF0FF06B
:100770000E6A0D6A0C6A0B6A10901092000101EF6C
:1007800003F0F28EF28CF28AF294000ED76E060E0F
:10079000D66ED58ED58CD59AD5861200000E936E66
:1007A000000E816EC1EC03F0D7EC03F01200945000
:0707B0000F09946E12000115
:020000040020DA
:08000000FFFFFFFFFFFFFFFF00
:020000040030CA
:0E000000FF071F1FFF8285FF0FC00FE00F409C
:00000001FF
