:020000040000FA
:0400000007EF00F016
:100008003C8299ED02F01AEF03F076EC03F0000E53
:10001800226E000E296E20EE2BF010EE0AF0080E6C
:10002800DBCFE3FFE806FCE2000E246E050E236E2C
:10003800980E256E3A0E266E000E276E000E286E5C
:10004800000E1C6E000E1D6E000E1E6E000E1F6E42
:1000580081902950D8A433EF00F035EF00F0BBEFC2
:1000680000F0DB0E036E2F0E046E800E056EF8ECAA
:1000780002F039043A10D8A444EF00F046EF00F03B
:100088004EEF00F03750C00F036E5F0E61EC03F0C7
:1000980054EF00F03750C00F036E200E61EC03F0F0
:1000A800010E5EEC02F02A6E2A04D8B45EEF00F06E
:1000B80060EF00F069EF00F0020E2A18D8A467EF8D
:1000C80000F069EF00F0BBEF00F02A04D8B46FEF3E
:1000D80000F071EF00F077EF00F0000E216E310EA6
:1000E800206E7BEF00F0000E216E300E206E375030
:1000F800130FD96EDA6A20C0DFFF2A04D8A487EF6D
:1001080000F089EF00F091EF00F03750C00F036E58
:10011800300E61EC03F097EF00F03750C00F036E1C
:10012800310E61EC03F0060E076E130E066EAE0E6E
:10013800E82EFED7062EFCD7072EFAD73750C00F69
:10014800036E2A0E61EC03F0374A382A080E371876
:100158003810D8A4B2EF00F0B4EF00F0BBEF00F015
:100168003750130FD96EDA6ADF6A010E296E290437
:10017800D8A4C1EF00F0C3EF00F02EEF01F00A0E93
:10018800016E130E026EC9EC02F001500210D8A4E1
:10019800D0EF00F0D2EF00F0E2EF00F0000E016EB9
:1001A800010E37EC03F0EA0E036E2F0E046E800E7C
:1001B800056EF8EC02F08190E0EF00F0000E016EA1
:1001C800010E37EC03F0CC0E036E2F0E046E800E7A
:1001D800056EF8EC02F0BD0E036E2F0E046EC00E15
:1001E800056EF8EC02F0CE0E036E2306D8A02406A6
:1001F8002350300F61EC03F00D0E076EAF0E066E44
:10020800B60EE82EFED7062EFCD7072EFAD700D05A
:10021800000E016E010E37EC03F025C006F026C073
:1002280007F027C008F028C009F0D8900932083232
:100238000732063206C025F007C026F008C027F0AE
:1002480009C028F0010E226E000E296E000E386ECD
:10025800000E376E2204D8A434EF01F036EF01F017
:1002680063EF01F01CC006F01DC007F01EC008F0C7
:100278001FC009F01C2A000E1D221E221F22255015
:10028800065C265007582750085828500958D8A007
:1002980050EF01F052EF01F063EF01F0000E1C6E19
:1002A800000E1D6E000E1E6E000E1F6E81A05FEF09
:1002B80001F062EF01F0818063EF01F0819023503B
:1002C8002410D8A46AEF01F06CEF01F02DEF00F0D4
:1002D800000E016E010E37EC03F0AD0E036E2F0E0B
:1002E800046E800E056EF8EC02F0F60E036E2F0E0B
:1002F800046EC00E056EF8EC02F0818082EF01F00A
:1003080007EF00F0819A818C818E81B28EEF01F027
:1003180090EF01F093EF01F0010E09EF02F081B4C4
:1003280098EF01F09AEF01F09DEF01F0040E09EF4C
:1003380002F081B6A2EF01F0A4EF01F0A7EF01F0FF
:10034800070E09EF02F081B8ACEF01F0AEEF01F053
:10035800B1EF01F00A0E09EF02F0818A819C818ECB
:1003680081B2B9EF01F0BBEF01F0BEEF01F0020E70
:1003780009EF02F081B4C3EF01F0C5EF01F0C8EF57
:1003880001F0050E09EF02F081B6CDEF01F0CFEFD5
:1003980001F0D2EF01F0080E09EF02F081B8D7EFB3
:1003A80001F0D9EF01F0DCEF01F00B0E09EF02F0DC
:1003B800818A818C819E819E81B2E5EF01F0E7EF11
:1003C80001F0EAEF01F0030E09EF02F081B4EFEF5C
:1003D80001F0F1EF01F0F4EF01F0060E09EF02F081
:1003E80081B6F9EF01F0FBEF01F0FEEF01F0090E25
:1003F80009EF02F081B803EF02F005EF02F008EF11
:1004080002F00C0E09EF02F0FF0E1200000E956EBE
:100418009450F80B946E8290C30E036ECD0EE82EA6
:10042800FED7032EFCD70000000E016E330E37EC0A
:1004380003F01B0E036E9E0EE82EFED7032EFCD78C
:1004480000D0000E016E330E37EC03F0A60EE82E36
:10045800FED700D0000E016E330E37EC03F000D04B
:1004680000D00000000E016E020E37EC03F0A60E5D
:10047800E82EFED700D0000E016E380E37EC03F0E0
:10048800A60EE82EFED700D0000E016E010E37EC46
:1004980003F0040E036E3E0EE82EFED7032EFCD7A3
:1004A800000E016E0C0E37EC03F0A60EE82EFED7F8
:1004B80000D01200016E0104D8A465EF02F067EFC6
:1004C80002F08BEF02F086EC01F03B6E3B28D8B4CB
:1004D80070EF02F072EF02F07FEF02F03450D8B400
:1004E80078EF02F07AEF02F07FEF02F0000E346E40
:1004F8003B5098EF02F03B28D8A485EF02F087EF35
:1005080002F097EF02F0010E346E97EF02F00150FF
:10051800D8A491EF02F093EF02F097EF02F086EC87
:1005280001F098EF02F0FF0E12000600F2A49FEF10
:1005380002F0A1EF02F0C7EF02F0080ED624D66E43
:10054800000ED720D76E354A362A100E351807E127
:10055800270E3618D8A4B3EF02F0B5EF02F0C6EFB5
:1005680002F039503A10D8B4BCEF02F0BFEF02F0F5
:10057800010EC0EF02F0000E396E3A6A000E366EB8
:10058800000E356EF2943C921100CDEF02F0012A74
:10059800022A0250D96EDA6A0150E16EE26ADE5030
:1005A800E618D8A4DAEF02F0DCEF02F0E7EF02F089
:1005B8000150D96EDA6ADF50D8A4E5EF02F0E7EF10
:1005C80002F0CBEF02F00150D96EDA6ADF50036E09
:1005D8000250D96EDA6ADF50046E0450035C016E73
:1005E800026AD8A002061200000E016E055037EC10
:1005F80003F00BEF03F0010E016E03C0F6FF04C019
:10060800F7FF0800F55037EC03F0034A042A03C04B
:10061800F6FF04C0F7FF0800F5500009D8A417EF4B
:1006280003F019EF03F0FFEF02F01200FA0EF66E76
:10063800060EF76E000EF86E00EE2BF010EE0AF0C4
:100648000900F5CFEEFFE550E150FAE100EE35F094
:10065800070EEE6AE806FDE13C903C92000EF86E4B
:10066800000109EF00F0026E01B03DEF03F040EF2A
:1006780003F0828241EF03F0829202C083FF8284FA
:100688008294958E828082928284829483BE4FEF78
:1006980003F051EF03F048EF03F08290959E1200AB
:1006A800F28EF28CF28AF294000ED76E060ED66E97
:1006B800D58ED58CD59AD5861200046E000E016EA3
:1006C800035037EC03F0010E016E045037EC03F0D1
:1006D80012000F0EC16E1E0E936EF19E8150E0093E
:1006E800816E12000AEC02F06DEC03F054EC03F09A
:0C06F8001200313131313030303000015F
:102FAC0000594F552041524520424C4F434B45440C
:102FBC0000415454454D505453204C454654200028
:102FCC0057524F4E472050415353574F5244004590
:102FDC004E5445522050415353574F524400535571
:102FEC00434345535321212121005245534554213C
:042FFC00212100008F
:020000040020DA
:08000000FFFFFFFFFFFFFFFF00
:020000040030CA
:0E000000FF071F1FFF8285FF0FC00FE00F409C
:00000001FF
