:020000040000FA
:0400000007EF00F016
:0A000800078201ED03F085EF03F01D
:1006000000000600F2A407EF03F009EF03F02BEF60
:1006100003F0080ED624D66E000ED720D76E054AFA
:10062000062A200E051807E14E0E0618D8A41BEF67
:1006300003F01DEF03F02AEF03F0000E066E000E2C
:10064000056E81A026EF03F029EF03F081802AEFE9
:1006500003F08190F2949EA030EF03F032EF03F0AC
:1006600052EF03F0DE0ECE24CE6E0B0ECF20CF6EF7
:10067000034A042A500E03180410D8A442EF03F0D2
:1006800044EF03F051EF03F0000E046E000E036E12
:1006900081A24DEF03F050EF03F0818251EF03F0A0
:1006A00081929E909EA257EF03F059EF03F075EFF1
:1006B00003F0014A022A200E011807E14E0E02182B
:1006C000D8A465EF03F067EF03F074EF03F0000EBA
:1006D000026E000E016E81A470EF03F073EF03F061
:1006E000818474EF03F081949E9207921100F28E40
:1006F000F28CD58EF294F28A000ED76E060ED66E6C
:10070000D58ED58CD59AD5861200066A056A046AFC
:10071000036A026A016A079007920001ADEF03F0D5
:10072000000E936E000E816E77EC03F09BEC03F0ED
:10073000A5EC03F01200F28EF28CCD809E909D808D
:100740000B0ECF6EDC0ECE6E1200F28EF28CCA84CF
:100750009E929D82F90ECB6E120090EC03F0AFEFEB
:0607600003F007EF00F0BA
:020000040020DA
:08000000FFFFFFFFFFFFFFFF00
:020000040030CA
:0E000000FF071F1FFF8285FF0FC00FE00F409C
:00000001FF
