:020000040000FA
:040000005EEF04F0BB
:100600000000000E156E000E146E000E176E000E28
:10061000166E000E196E000E186E000E1B6E000E88
:100620001A6E000E1D6E000E1C6E0250141807E1AB
:1006300003501518D8A41FEF03F021EF03F0ABEF20
:1006400003F001501624D96EDA6ADF50836E8050B1
:10065000F00B0109806EE80E046E030E056E000EAD
:10066000066E000E076E0406000E055A065A075A5B
:100670000450051006100710D8A441EF03F043EF13
:1006800003F033EF03F001501824D96EDA6ADF501B
:10069000836E8050F00B0209806EE80E086E030E28
:1006A000096E000E0A6E000E0B6E0806000E095A47
:1006B0000A5A0B5A085009100A100B10D8A463EFFD
:1006C00003F065EF03F055EF03F001501A24D96EE3
:1006D000DA6ADF50836E8050F00B0409806EE80EFA
:1006E0000C6E030E0D6E000E0E6E000E0F6E0C06DD
:1006F000000E0D5A0E5A0F5A0C500D100E100F10FE
:10070000D8A485EF03F087EF03F077EF03F00150F3
:100710001C24D96EDA6ADF50836E8050F00B080912
:10072000806EE80E106E030E116E000E126E000E3B
:10073000136E1006000E115A125A135A105011104F
:1007400012101310D8A4A7EF03F0A9EF03F099EF4C
:1007500003F0F1EF03F0010E1424146E000E1520C7
:10076000156E1C4A1D2A1DBEBFEF03F01D5009E186
:100770000A0E1C5CD8A0BFEF03F0C1EF03F015EF29
:1007800003F01A4A1B2A1BBECFEF03F01B5009E1EE
:100790000A0E1A5CD8A0CFEF03F0D1EF03F011EFEF
:1007A00003F0184A192A19BEDFEF03F0195009E1C6
:1007B0000A0E185CD8A0DFEF03F0E1EF03F00DEFB5
:1007C00003F0164A172A17BEEFEF03F0175009E19E
:1007D0000A0E165CD8A0EFEF03F0F1EF03F009EF7B
:1007E00003F0120081EC04F0000E2D6E000E2C6E52
:1007F000000E2B6E000E2A6E2EC020F02FC021F0AE
:1008000030C022F031C023F032C024F033C025F0D4
:1008100034C026F035C027F036C028F037C029F0A4
:1008200082B015EF04F017EF04F031EF04F02C5014
:100830001E6E2D501F6E2C4A2D2A1FBE29EF04F06C
:100840001F5009E1650E1E5CD8A029EF04F02BEFC4
:1008500004F052EF04F0000E2B6E000E2A6E52EFE1
:1008600004F02DBE3FEF04F02D5007E1640E2C5C28
:10087000D8B03DEF04F03FEF04F04EEF04F02DBE92
:100880004AEF04F02D5008E12C04D8A04AEF04F000
:100890004CEF04F04EEF04F02A4A2B2A000E2D6E86
:1008A000000E2C6E200E016E2AC002F02BC003F049
:1008B00001EC03F010EF04F000EF00F0F80EF66E1C
:1008C000080EF76E000EF86E00EE2EF010EE0AF035
:1008D0000900F5CFEEFFE550E150FAE10001F2EF3B
:1008E00003F00F0EC16E000E956E9250F00B926EDB
:1008F0008050F00B806E1200E721CB6B2D6EEE2343
:08090000EF6F71EC04F012002E
:020000040020DA
:08000000FFFFFFFFFFFFFFFF00
:020000040030CA
:0E000000FF071F1FFF8285FF0FC00FE00F409C
:00000001FF
