:020000040000FA
:04000000C0EF03F05A
:100600000000BBEC03F0000E056E000E066E000E3F
:10061000076E000E086E000E016E000E026E000ED8
:10062000036E000E046E010E0126000E022203224C
:100630000422A10E01180AE1860E021807E1030444
:100640000410D8A426EF03F028EF03F013EF03F013
:10065000000E016E000E026E000E036E000E046EA0
:1006600008500710061007E1080E055CD8B03BEFF4
:1006700003F03DEF03F047EF03F0D8808136010E21
:100680000526000E06220722082213EF03F0085069
:100690000710061009E1080E055CD8A052EF03F020
:1006A00054EF03F06CEF03F008500710061007E159
:1006B000100E055CD8B05FEF03F061EF03F06CEF54
:1006C00003F081508124816E010E0526000E062262
:1006D0000722082213EF03F008500710061009E163
:1006E000100E055CD8A077EF03F079EF03F08AEFE6
:1006F00003F008500710061007E1180E055CD8B08B
:1007000084EF03F086EF03F08AEF03F0D8808132A4
:100710003FEF03F008500710061009E1180E055CC2
:10072000D8A095EF03F097EF03F0AFEF03F0085078
:100730000710061007E1200E055CD8B0A2EF03F009
:10074000A4EF03F0AFEF03F0D8908130816E010E7B
:100750000526000E06220722082213EF03F0000EE2
:10076000056E000E066E000E076E000E086E13EF8B
:1007700003F000EF00F0000E936E000E816E120089
:06078000000101EF03F08F
:020000040020DA
:08000000FFFFFFFFFFFFFFFF00
:020000040030CA
:0E000000FF071F1FFF8285FF0FC00FE00F409C
:00000001FF
