:020000040000FA
:0400000007EF00F016
:0A0008000E8253ED03F08CEF03F0BD
:10060000000083EC03F0030E0B6E0A68040E30EC5E
:1006100003F001C008F002C009F00C50085C0D5056
:100620000958D8A016EF03F018EF03F01BEF03F002
:1006300081801CEF03F081900A500C1807E10B50E9
:100640000D18D8A426EF03F028EF03F006EF03F00F
:10065000000E0D6E000E0C6E06EF03F007EF00F0BB
:10066000076E07C003F0D8900336D8900336C25007
:10067000C30B0310C26EC282C2B241EF03F043EF5C
:1006800003F03CEF03F0C350C4CF03F0046A03C08F
:1006900004F0036A0310056E0450066E05C001F0F5
:1006A00006C002F012000600F2A459EF03F05BEF5F
:1006B00003F064EF03F0080ED624D66E000ED720A8
:1006C000D76E0C4A0D2AF2940E921100C08EC09A79
:1006D000C088C096C090C082C094C292C19AC1988E
:1006E000000EC46E000EC36EC2801200F28EF28C39
:1006F000F28AF294000ED76E060ED66ED58ED58C89
:10070000D59AD5861200000E816E000E936E66ECAF
:1007100003F076EC03F012000D6A0C6A0E900E9254
:06072000000101EF03F0EF
:020000040020DA
:08000000FFFFFFFFFFFFFFFF00
:020000040030CA
:0E000000FF071F1FFF8285FF0FC00FE00F409C
:00000001FF
