:020000040000FA
:04000000EEEF03F02C
:100600000000000E956E9450F80B946E8290C30E0D
:10061000036ECD0EE82EFED7032EFCD70000000E91
:10062000016E330E9CEC03F01B0E036E9E0EE82E43
:10063000FED7032EFCD700D0000E016E330E9CECCB
:1006400003F0A60EE82EFED700D0000E016E330E8A
:100650009CEC03F000D000D00000000E016E020EF2
:100660009CEC03F0A60EE82EFED700D0000E016E23
:10067000380E9CEC03F0A60EE82EFED700D0000E3C
:10068000016E010E9CEC03F0040E036E3E0EE82E8C
:10069000FED7032EFCD7000E016E0C0E9CEC03F06F
:1006A000A60EE82EFED700D0120001EC04F020EEDA
:1006B00060F010EE07F0310EDBCFE3FFE806FCE25E
:1006C000070E036E800E046EB9EC03F0100E066E7A
:1006D000390E056E0E0EE82EFED7052EFCD7062E1F
:1006E000FAD716C039F03A6A000E3C6E0F0E3B6E18
:1006F0003BC005F0FF0E05260550070FD96EDA6ADC
:100700003B50070FE16EE26ADFCFE7FF3B06D8A060
:100710003C063CBE96EF03F03C5006E13B04D8B0EB
:1007200094EF03F096EF03F078EF03F039C007F091
:1007300060EF03F000EF00F0026E01B0A2EF03F0F3
:10074000A5EF03F08282A6EF03F0829202C083FF3E
:1007500082848294958E828082928284829483BEE7
:10076000B4EF03F0B6EF03F0ADEF03F08290959E87
:100770001200000E016E04509CEC03F0C9EF03F070
:10078000010E016E0350D96EDA6ADF509CEC03F063
:10079000032A0350D96EDA6ADF50D8A4D2EF03F0EF
:1007A000D4EF03F0C0EF03F0120068656C6C6F5F6C
:1007B0005F5F5F5F5F5F5F5F5F5F00000000000083
:1007C0000000000000000000000000000000000029
:1007D000000000000000000000000000AA0EF66EFD
:1007E000070EF76E000EF86E00EE60F010EE32F0BD
:1007F0000900F5CFEEFFE550E150FAE1000155EFB9
:0808000003F001EC03F012000B
:020000040020DA
:08000000FFFFFFFFFFFFFFFF00
:020000040030CA
:0E000000FF071F1FFF8285FF0FC00FE00F409C
:00000001FF
